:020000040800F2
:10000000B0080020F10100088D29000885290008AA
:100010008929000819140008F92C000800000000C4
:10002000000000000000000000000000B9290008E6
:100030001D14000800000000070200080902000863
:100040000B0200080B0200080B0200080B0200085C
:100050000B0200080B0200080B0200080B0200084C
:100060000B0200080B0200080B0200080B0200083C
:100070000B0200080B0200080B0200080B0200082C
:100080000B0200080B0200080B0200080B0200081C
:100090000B0200080B0200080B0200080B0200080C
:1000A0000B0200080B0200080B0200080B020008FC
:1000B0000B0200080B0200080B0200080B020008EC
:1000C0000B0200080B0200080B0200080B020008DC
:1000D0000B020008792C00080B0200089D2C000878
:1000E0000B0200080B0200080B0200080B020008BC
:1000F0000B0200080B0200080B0200080B020008AC
:100100000B0200080B0200080B0200080B0200089B
:100110000B0200080B0200080B0200080B0200088B
:100120000B0200080B0200080B0200080B0200087B
:1001300000F002F800F04DF80AA090E8000C8244AC
:100140008344AAF10107DA4501D100F042F8AFF289
:10015000090EBAE80F0013F0010F18BFFB1A43F0A5
:1001600001031847DCAA0000FCAA0000103A24BFD3
:1001700078C878C1FAD8520724BF30C830C144BF0C
:1001800004680C607047000000230024002500264E
:10019000103A28BF78C1FBD8520728BF30C148BFEA
:1001A0000B607047662907F01985642900F04E80BE
:1001B000782900F08780002070471FB500F0DAFB37
:1001C00004000020002107F0B3F9E0601FBD10B566
:1001D00010BD00F0EBFC1146FFF7EFFF07F0ACF8A5
:1001E00000F009FD03B4FFF7F2FF03BC02F0BDFD10
:1001F0000948804709480047FEE7FEE7FEE7FEE7BB
:10020000FEE7FEE7FEE7FEE7FEE7FEE704480549F6
:10021000054A064B70470000BB2900083101000861
:10022000B0020020B0080020B0040020B00400207C
:10023000704700000FB4044910B503AA029800F0FB
:1002400087FB10BC5DF814FB080000202DE9F0418D
:100250000646002410687529314616A510D0AFF364
:100260000080002802DA404213A507E031688A07BF
:1002700001D512A502E0490704D511A5012401E02A
:10028000AFF3008000210A2206F1240709E0B0FB49
:10029000F2FCB0FBF2F302FB1C003030785418463D
:1002A000491C0028F3D123462A463046BDE8F041D8
:1002B00000F0E6B8000000002D0000002B00000058
:1002C0002000000070B504460D4621461068AFF3CB
:1002D00000802188090502D50F4A7A4402E00E4ABF
:1002E0007A440E32002104F1240305E000F00F06E9
:1002F0000009965D5E54491C0028F7D12078002340
:10030000000704D5702D02D009B102231132204616
:10031000BDE8704000F0B4B8A6A800002DE9F04791
:100320004FF0000A89460446C0F820A02046E16844
:100330008847002876D0252806D0D4E901219047A7
:10034000206A401C2062F1E7E168204600258847CA
:10035000C4F81CA006460027C4F818A02A2E09D00D
:10036000304602F0FBFC38B304EB8708303EC8F897
:10037000186019E059F8041B204604EB87029161CC
:10038000E1688847012F064618D1E069002820DA85
:1003900025F020051DE0D8F8180000EB800006EBE2
:1003A00040003038C8F818002046E1688847064603
:1003B00002F0D4FC0028EED1012F0AD02E2E08D155
:1003C0002046E16888477F1C0646022F45F020053D
:1003D000C4DBA069002803DA404245F00105A061B2
:1003E000E80701D025F01005B6B1A6F141001928A3
:1003F00002D8203645F400654A463146204625603D
:100400004D46FFF7CFFE58B1012806D0ED1D25F06F
:10041000070000F1080989E704E005F1040985E710
:1004200030468AE7206ABDE8F0874FF0000200B549
:10043000134694469646203922BFA0E80C50A0E807
:100440000C50B1F12001BFF4F7AF090728BFA0E8B5
:100450000C5048BF0CC05DF804EB890028BF40F881
:10046000042B08BF704748BF20F8022B11F0804FC3
:1004700018BF00F8012B70477047704770477047EE
:100480002DE9F0470D4699469246044600F12408AE
:100490000168880604D5E06921F01001216000E0C0
:1004A0000120A84201DD471B00E00027A1697A195D
:1004B00002EB0900081AA0612078C00602D4204689
:1004C000AFF30080002608E0D4E901211AF8060005
:1004D0009047206A401C761C20624E45F4DB207851
:1004E000C0060AD52046AFF3008006E0D4E901211A
:1004F00030209047206A401C2062381EA7F1010777
:10050000F4DC07E0D4E9012118F805009047206ADF
:10051000401C2062281EA5F10105F3DC2046AFF344
:1005200000802078000602D50220BDE8F087012077
:10053000FBE770472DE9FF4F0C461E464FF0FF3793
:100540008BB0D2E90001DDF860800A908A46C1F3E1
:100550000A5505B93D46002108464FF00000BAF1A2
:10056000000F00F4400005DA00EB80004FF440017A
:1005700001EA50004FEA9059B9F1010F00DDB94688
:100580000A9850EA4A000ED044F61050A5F2FF3502
:1005900045432F14B8F1000F1ED07542291E1EDDF1
:1005A000C9F100021CE0B8F1010F4FF0000001D0CA
:1005B000302103E0F24305E02154401CB042FBDB54
:1005C00030460022002121540B99C1F80880C1E96E
:1005D00000200FB0BDE8F08FBD1B6D1CDEE74A4662
:1005E00000DA694206A800F067FA06AB93E8070054
:1005F00003AB83E8070050460A9900F045FB8DE8FD
:100600000700A0F500501F3800900398002D0ADD68
:1006100042F21F014A460844002303A9039068469A
:1006200000F0AEFD09E0A0F500504A461F38002357
:1006300003A90390684600F0B8FD8DE807000004A8
:10064000000C03D04FF0FF30410800E01046B8F135
:10065000000F03D00022009215461EE0751E05D43F
:1006600000F08CF9303262556D1EF9D5B346012287
:10067000084302D000227F1C04E02078302801D1FA
:1006800000227F1E002A099784D01DE0112D07DA71
:1006900000F074F9303262556D1C50EA0102F5D158
:1006A000084302D00098C8B10EE00021681E05E0A2
:1006B000235C625C63542254401E491C8142F7DB78
:1006C000AB46A81B401E0990002004F80B000B98B5
:1006D000099AC0F80880C0E9002B7AE711264FF08C
:1006E000000857E72DE9F04F88460446D21D22F056
:1006F000070191B0D1E90001CDE90A0102F0FEFA4B
:1007000002460B98C00F01D02D2007E0206881071A
:1007100001D52B2002E0202101EAC000032A099024
:1007200001D0072A05DB03464146204600F084F944
:100730000BE12078800601D5E06900E00620B8F1E1
:10074000650F814606D0B8F1660F18D0B8F1670F73
:1007500070D131E00020B9F1110F009001DB1123BD
:1007600001E009F101030AAA01A90CA8FFF7E2FEC2
:10077000DDE90C70002609F10105834647E0012000
:100780004B4600904FF000470AAA01A90CA8FFF7BA
:10079000D1FEDDE90DB00C995D46002610B909F1D6
:1007A00001000D18B9EB050003D4C0F1FF3609F1C3
:1007B0000105A5EB09002BE0B9F1010F01DA4FF0BB
:1007C00001090020B9F1110F0090484601DD112305
:1007D00000E003460AAA01A90CA8FFF7ABFEDDE979
:1007E0000C704D4600268346207800070AD4AB459E
:1007F00000DA5D4601A8012D04DD411911F8011C44
:10080000302907D04F4502DA17F1040F04DA01202E
:1008100082460FE06D1EEEE7002F02DCED1B3E442A
:1008200003E0781CA84200DD7D1CB81B00F1010A22
:100830004FF000472078000703D4AA4501DB4FF0B2
:10084000FF3A0021B7F1004F0DF143088DF8431036
:1008500024D002202B23002F01DA7F422D230A21EE
:10086000021EA0F1010000DC5FB197FBF1FC97FBD9
:10087000F1F201FB1C7C17460CF1300C08F801CD9D
:10088000EEE7A8F1010003702188090501D5452193
:1008900000E06521A0F1010800F8011C09980FA9EA
:1008A000A1EB0807FF1D00B10120411901EBEA701F
:1008B000A1693844081A401EA0612078C00602D4FD
:1008C0002046AFF30080099828B1D4E90121904770
:1008D000206A401C20622078C00622D52046AFF353
:1008E00000801EE0002E04DBB34502DD01A8805D20
:1008F00000E03020D4E901219047206A401C2062AA
:10090000761CAAF101005FEA000A0AD100F032F871
:10091000C0680168405CD4E901219047206A401C0E
:100920002062281EA5F10105DCDC07E0D4E90121E5
:1009300018F8010B9047206A401C2062381EA7F16E
:100940000107F3DC2046AFF30080032011B041E63D
:10095000074B70B50D467B4400F05BF80446284613
:1009600000F01CF910B14FF0FF3070BD204670BD93
:1009700033320000004870477002002030B5B0F1FB
:100980000A024FEA900E71F100034EEA817EB0EB4D
:100990000E0061EB91014FEA101E4EEA017E10EB52
:1009A0000E0041EB11114FEA102E4EEA016E10EBD2
:1009B0000E0041EB11214FEA104E4EEA014E10EBB2
:1009C0000E0041EB1141401841F100014FEAD00007
:1009D00040EA41704FEAD10110EB80054FEA8104F3
:1009E00044EA907444EB01046D1944EB0404521B77
:1009F000A3414FF0000348BF0A3200D530BD401C70
:100A000041F1000130BD000001694A1C0261087813
:100A1000704700B58FB0CDE901310021059105493E
:100A20007944CDE9031011466846FFF777FC0FB013
:100A300000BD0000E5FFFFFF2DE9F0411F46044621
:100A400003260168072A01F4006004DB08B116A53B
:100A500005E016A503E008B115A500E015A521F0F5
:100A600010002060A069C01EA0610FB1401EA061EF
:100A70002046AFF300804FB1D4E9012138469047BA
:100A8000206A401C2062C01C206206E0206AFAE74F
:100A9000D4E9012115F8010B9047761EF8D22046C3
:100AA000AFF30080BDE8F0814E414E006E616E00F4
:100AB000494E4600696E66002DE9F04781461646AC
:100AC0008AB0354878440DC88DE80D003248784426
:100AD000801C03AC0DC884E80D0041F69B3008442F
:100AE000372190FBF1F290FBF1F5A5F1800501FBB8
:100AF00012041B3C02D56442012000E00020DFF814
:100B000098A080460027FA44AAF1BE0A0EE0E0074A
:100B10000AD03246684607EB470101230AEB810100
:100B200000F043FB8DE8070064107F1C002CEED121
:100B3000194F7F44AE3F19E0E80715D007EB0410CA
:100B40000DF1180A90E80E008AE80E00C068F04225
:100B500001D1981908903246012306A903A800F094
:100B600024FB03AB83E807006D10641C002DE3D168
:100B70004FF0010332466946B8F1000F03A802D0D6
:100B800000F0FEFA01E000F010FBC9E90001C9F82D
:100B900008200AB0BDE8F08760A10000007B00F0EB
:100BA0008000704700487047500200207546FFF7EC
:100BB000F9FFAE4605006946534620F0070085461A
:100BC00018B020B5FFF722FBBDE820404FF000062B
:100BD0004FF000074FF000084FF0000B21F0070125
:100BE000AC46ACE8C009ACE8C009ACE8C009ACE868
:100BF000C0098D46704710B50446AFF3008020460B
:100C0000BDE81040FFF7EEBA4FF0013C50F8042B5E
:100C100051F8043B9A4221D1A2EB0C03934313EA0F
:100C2000CC1317D150F8042B51F8043B9A4215D13C
:100C3000A2EB0C03934313EACC130BD150F8042B13
:100C400051F8043B9A4209D1A2EB0C03934313EAF7
:100C5000CC13DBD04FF00000704700BFD01A01BAB0
:100C6000B1FA81F101F0180122FA01F0CB40C1F193
:100C70002001DBB2C0B2C01A2CFA01F3D11A9143A1
:100C800011EAC311E6D170475FEA400C08BF91F04A
:100C9000000F4FEA8C234FEAC12243EA51514FEA39
:100CA0001C5018BF00F5F0404FEA300018BF41F06B
:100CB00000415FEA6C5C00F02980BCF1FF3F08BF97
:100CC00040F080407047130C06BF12044FF0100C28
:100CD0004FF0000C130E04BF12020CF1080C130F9E
:100CE00004BF12010CF1040C930F04BF92000CF12D
:100CF000020CD30F04BF52000CF1010C11464FF04F
:100D00000002A0F11F00A0EB0C00704711F0004F93
:100D100008BF704731F000413FF4D5AF0B0C06BF60
:100D200009044FF0100C4FF0000C0B0E04BF090229
:100D30000CF1080C0B0F04BF09010CF1040C8B0F14
:100D400004BF89000CF1020CCB0F04BF49000CF169
:100D5000010CCCF12003A0EB0C0022FA03F302FA01
:100D60000CF241EA030100F10100704720F07F4CD2
:100D700080EA030023F07F47ACEB070303F57C53C5
:100D800000F0004003F1FF032DE980494FEA154BC5
:100D900009B44FEA144325EA0B4E24EA03480FF244
:100DA000042606EB132749083E785FEA320203FB6C
:100DB0000667C7F5000707FB06F64FEA54374FEA08
:100DC000D64606F1020607FB066CCCF1005C4FEA42
:100DD0001C472CEA074C07FB06F40CFB06F504EB5A
:100DE00015464FEA961634BF00204FF000404FEAF8
:100DF000D13706FB07FC4FEA1C4C0CFB0BF7D21B50
:100E000003FB0CF761EB07010CFB0EF7B0EB07409F
:100E100072EB17420CFB08F734BFA2EB0742B2EBB0
:100E2000074261EB17414FEA0C444FEA910706FB7A
:100E300007FC4FEA1C4C0CFB0BF7B0EBC74072EB06
:100E4000573203FB0CF734BFA2EBC742B2EBC742E9
:100E500061EB57310CFB0EF7B0EBC70072EB57722A
:100E60000CFB08F734BFA2EBC702B2EBC70261EB81
:100E70005771039F4FEA816141EA921104EBCC0460
:100E80004FEAD1374FEA826206FB07FC42EA901232
:100E90004FEA80604FEA1C4C0CFB0BF7D21B03FBA4
:100EA0000CF761EB07010CFB0EF7B0EB074072EBA0
:100EB00017420CFB08F734BFA2EB0742B2EB074224
:100EC00061EB17414FEA8C554FEA910704EB9C24E4
:100ED00006FB07FC4FEA1C4C0CFB0BF7B0EBC740C2
:100EE00072EB573203FB0CF734BFA2EBC742B2EBF5
:100EF000C74261EB57310CFB0EF7B0EBC70072EB4A
:100F000057720CFB08F734BFA2EBC702B2EBC70263
:100F100061EB577115EB4C254FEA816141EA921163
:100F20004FEA82624FEAD13742EA901206FB07FC91
:100F300044F100044FEA80604FEA1C4C0CFB0BF7B5
:100F4000D21B03FB0CF761EB07010CFB0EF7B0EBB8
:100F5000074072EB17420CFB08F734BFA2EB0742C5
:100F6000B2EB074261EB174115EB1C154FEA8131DB
:100F700041EA92414FEA823242EA90424FEA80309F
:100F80004FEA0C7644F1000448EA03434EEA0B486A
:100F90004FF0000EB2EB080C71EB030724BF624662
:100FA00039464EEB0E0E4FF0000B001852414941EE
:100FB0004BEB0B0BB2EB080C71EB03077BF1000B57
:100FC00024BF624639464EEB0E0E4FF0000B001860
:100FD000524149414BEB0B0BB2EB080C71EB030791
:100FE0007BF1000B24BF624639464EEB0E0E51EAF0
:100FF000020718BF46F0010616EB0E7655F1000207
:1010000054F1000103D5BDE88901BDE80088BDE8C1
:101010008901BDE80048B619524141EB0101A3F135
:101020000103704780807F7E7D7C7B7A797877763C
:1010300076757473727171706F6E6E6D6C6C6B6AB5
:101040006A69686867666665646463636261616053
:10105000605F5F5E5E5D5D5C5C5B5B5A5A595958D0
:10106000585757565655555554545353525252513A
:10107000515050504F4F4F4E4E4D4D4D4C4C4C4B90
:101080004B4B4A4A4A4949494848484747474746D7
:101090004646454545444444444343434342424213
:1010A00042414141002B9C4630D477002BD01CB5E7
:1010B0004FEA370703B44FF010004FF01001BAF1B8
:1010C000000F06D0BCF1000FDCBF40F0080040F07C
:1010D00008014FF000000FBCBDE810400BF1010B00
:1010E000BBF1010F08BF5FEA170722BF12F101022F
:1010F00011F101014FF0004143F1000300F0004005
:1011000043EA00007047F9D35708D0E746EA06469D
:1011100013F1400F4FEA16461FDD13F1200FDFBF1A
:1011200016430A46002120335B42BED0C3F120079C
:1011300046EA064602FA07F74FEA164646EA070667
:10114000C3F1200722FA03F201FA07F721FA03F1AB
:101150004FF0000342EA0702A7E746EA020646EA22
:1011600006464FEA164646EA0106BCBF46EA064670
:10117000360C4FF000034FF000024FF0000194E7EF
:101180002DE9804C9A46934670B491E8380007C820
:1011900031EA400C48BF34EA430C03D5FFF7E6FDC3
:1011A000FFF780FFF0BCBDE8008C2DE9804C9A462B
:1011B000934670B491E8380007C810F0804F08BF1C
:1011C00013F0804F03D100F005F8FFF76BFFF0BC80
:1011D000BDE8008C20F07F4780EA030023F07F4CBD
:1011E00007EB0C03A3F57C5300F00040A3F1FE03D2
:1011F00092F0000F00F0B38095F0000F00F07780C0
:101200002DE901494FEA11404FEA144621EA00480E
:1012100000FB06FC24EA064708FB06F607FB08F875
:1012200000FB07F718EB06484CEB164C4FEA124B45
:1012300018EB07484FEA15464CEB174022EA0B4ED5
:101240000BFB06FC25EA06470EFB06F607FB0EFE27
:101250000BFB07F71EEB064E4CEB164C4FF000064F
:101260001EEB074E4CEB174B18EB0B0840F1000040
:1012700018EB0E0B58EB000840F100008F1A4FF0EE
:1012800000013CBFC943661B14BFB5EB040C002131
:101290003CBFC943F61B4FEA17444EEA8E0E27EABD
:1012A00004454FEA1C4704FB07622CEA074C05FB88
:1012B00007F70CFB05F604FB0CFC16EB074642EBAC
:1012C000174216EB0C4642EB1C421BEB060658EB92
:1012D0000202414146EA9E0601D5BDE80189B619E0
:1012E000524141EB0101A3F10103BDE801894FEA3D
:1012F00014454FEA114724EA054621EA074C05FB4D
:1013000007F406FB07F70CFB06F105FB0CFC11EBE1
:10131000074144EB17444FEA124711EB0C4144EBF1
:101320001C4422EA074C05FB07F206FB07F70CFBFF
:1013300006F605FB0CFC16EB074642EB174216EBD4
:101340000C4642EB1C456A1854F1000148BF704737
:10135000B619524141EB0101A3F10103704795F029
:10136000000F37D04FEA11424FEA144721EA0246F4
:1013700024EA074C02FB07F106FB07F70CFB06F417
:1013800002FB0CFC14EB074441EB17414FEA1547F5
:1013900014EB0C4441EB1C4125EA074C02FB07F51A
:1013A00006FB07F70CFB06F602FB0CFC16EB0746E8
:1013B00045EB174516EB0C4645EB1C42121951F153
:1013C000000148BF7047B619524141EB0101A3F13A
:1013D000010370474FEA14454FEA114724EA0546D6
:1013E00021EA074C05FB07F106FB07F70CFB06F2A9
:1013F0004FF0000605FB0CFC12EB074241EB1741D6
:1014000012EB0C4251EB1C4148BF7047921841EB64
:101410000101A3F10103704700BFFEE77047000020
:1014200070B50446B3F5804F13D1D1E9000540EA09
:1014300005108D6840EA05208D6928438D8940EAB2
:10144000054054F82250064E3540284344F8220007
:1014500003E06FF0704044F82200002070BD0000EF
:101460000000F0CF70B50246086852F8200020F066
:1014700001000E6842F826008868082801D1402340
:1014800000E00023486818438E683043CE6830433C
:101490000E6930434E693043CE6930430E6A3043A3
:1014A0004E6A30438E6A3043CE6A30430E6B40EA58
:1014B000060488690443486B0443074D45F480657E
:1014C00045F4E025086852F82000A84320430E6840
:1014D00042F82600002070BD7FFB080010B50346CF
:1014E000D1E9000440EA04108C6840EA04208C89A9
:1014F00040EA0444088A401E44EA0054087D801EE5
:1015000044EA00608C692043541C53F8244004F0E2
:1015100040442043541C43F82400002010BD000028
:1015200070B50446002594F82100022803D0042059
:10153000A0630125C1E02068006820F00E0021684A
:1015400008602068006820F00100216808605C499C
:101550002068884252D95A4978392068884201D196
:10156000012047E0564964392068884201D11020A3
:1015700040E0534950392068884201D1801539E054
:101580004F493C392068884201D1801432E04C49EF
:1015900028392068884202D14FF480302AE0484937
:1015A00014392068884202D14FF4801022E0444967
:1015B0002068884201D140041CE0424920688842EA
:1015C00001D1012016E03F4914312068884201D141
:1015D00010200FE03B4928312068884201D1801556
:1015E00008E038493C312068884201D1801401E08C
:1015F0004FF480303349091F086051E03049783991
:101600002068884201D1012047E02D4964392068D3
:10161000884201D1102040E0294950392068884291
:1016200001D1801539E026493C392068884201D132
:10163000801432E0224928392068884202D14FF4D0
:1016400080302AE01E4914392068884202D14FF4C4
:10165000801022E01A492068884201D140041CE031
:1016600018492068884201D1012016E0154914313B
:101670002068884201D110200FE0124928312068EB
:10168000884201D1801508E00E493C31206888422B
:1016900001D1801401E04FF480300949803948605D
:1016A000012084F8210000BF002084F8200000BF42
:1016B000606B10B12046616B8847284670BD000002
:1016C00080000240080402402DE9F847024600234A
:1016D0009C467BE14FF0010808FA03F4D1F8008042
:1016E00008EA0400A0427DD1DFF8F4A2D1F804801A
:1016F000A8EB0A09D0453AD014DCB8F1030F50D05A
:1017000009DCB8F1000F31D0B8F1010F1CD0B8F1ED
:10171000020F49D120E0B8F1110F18D0B8F1120F23
:1017200042D11EE0B9F5881F25D006DCB9F5803F0F
:1017300020D0B9F5801F37D11AE0B9F5001F18D0B5
:10174000B9F5041F30D117E0D1F80CC02DE0D1F865
:101750000C8008F1040C28E0D1F80C8008F1080C8A
:1017600023E0D1F80C8008F10C0C1EE000BF00BF94
:1017700000BF00BF00BF00BFD1F80880B8F1000F64
:1017800002D14FF0040C0BE0D1F80880B8F1010F42
:1017900003D14FF0080C146102E04FF0080C5461C3
:1017A00003E04FF0000C00E000BF00BFFF2801D8AD
:1017B000904601E002F104084646FF2802D84FEAAD
:1017C000830803E0A3F108084FEA88084746D6F8E3
:1017D00000804FF00F0909FA07F928EA09080CFA06
:1017E00007F900E07AE048EA0908C6F80080D1F875
:1017F000048008F08058B8F1805F6FD100BFDFF837
:10180000E481D8F8188048F00108DFF8D891C9F8C9
:101810001880C846D8F8188008F00108CDF8008074
:1018200000BF00BF4FEAB9384FEA930958F8295072
:101830004FEA83784FEA18794FF00F0808FA09F851
:1018400025EA0805DFF8A081424502D14FF00008E3
:1018500024E0DFF89881424502D14FF001081DE0F5
:10186000DFF88C81424502D14FF0020816E0DFF824
:101870008481424502D14FF003080FE0DFF8788100
:10188000424502D14FF0040808E0DFF8708142457C
:1018900002D14FF0050801E04FF006084FEA8379C6
:1018A0004FEA197908FA09F848EA0505DFF8508186
:1018B0004FEA930948F82950D1F8048008F4803899
:1018C000B8F5803F0BD1DFF83C81D8F8008048EABA
:1018D0000008DFF83091C9F800800AE075E0DFF811
:1018E0002481D8F8008028EA0008DFF81891C9F8A8
:1018F0000080D1F8048008F40038B8F5003F0ED11C
:10190000DFF8008108F10408D8F8008048EA0008F0
:10191000DFF8F09009F10409C9F800800DE0DFF864
:10192000E48008F10408D8F8008028EA0008DFF80D
:10193000D49009F10409C9F80080D1F8048008F4B2
:101940008018B8F5801F0ED1DFF8B88008F10808BC
:10195000D8F8008048EA0008DFF8A89009F10809E3
:10196000C9F800800DE0DFF89C8008F10808D8F87D
:10197000008028EA0008DFF88C9009F10809C9F80E
:101980000080D1F8048008F40018B8F5001F0ED1CB
:10199000DFF8708008F10C08D8F8008048EA0008E9
:1019A000DFF8609009F10C09C9F800800DE0DFF85C
:1019B000548008F10C08D8F8008028EA0008DFF805
:1019C000449009F10C09C9F800805B1CD1F8008033
:1019D00028FA03F8B8F1000F7FF47CAEBDE8F88771
:1019E000000011100010024000080140000C0140EE
:1019F000001001400014014000180140001C01408B
:101A00000800014000040140024693680B400BB1FE
:101A1000012000E00020704710B5C26821EA0203EF
:101A200002EA010443EA0443036110BD0AB1016103
:101A300001E00B0403617047014800687047000033
:101A40001000002010B50848006840F0100006495A
:101A50000860052000F080F80F2000F007F800F083
:101A60002BF8002010BD00000020024070B5044695
:101A70000E4800784FF47A71B1FBF0F00C49096818
:101A8000B1FBF0F5284600F073FC08B1012070BDF1
:101A9000102C07D200222146501E00F01EF80548E7
:101AA000046001E00120F2E70020F0E718000020C8
:101AB000000000201400002070470146084600285E
:101AC00009DB00F01F0301229A4043099B0003F148
:101AD000E023C3F8002100BF70472DE9F05F804686
:101AE0000D461646002701F01DF9074639462A46DD
:101AF000334601F00700C0F1070ABAF1040F02D91A
:101B00004FF0040A01E0C0F1070AD14600F1040ACF
:101B1000BAF1070F02D24FF0000A01E0A0F1030A68
:101B2000D4464FF0010A0AFA09FAAAF1010A0AEAB0
:101B3000020A0AFA0CFA4FF0010B0BFA0CFBABF19C
:101B4000010B0BEA030B4AEA0B042146404601F065
:101B5000F1F8BDE8F09F000000BF00F00702064B5F
:101B600019684FF6FF031940044B0B4343EA022167
:101B7000014B196000BF70470CED00E00000FA0552
:101B800070B504460D460CB9012070BD5A48006876
:101B900000F00700A8420ED25748006820F0070066
:101BA0002843554908600846006800F00700A8422D
:101BB00001D00120E9E7207800F0020002281DD1C1
:101BC000207800F00400042805D14C48406840F417
:101BD000E0604A494860207800F00800082805D1F4
:101BE0004648406840F46050444948604348406873
:101BF00020F0F000A168084340494860207800F0D8
:101C0000010078B36068012806D13C48006800F400
:101C1000003090B90120B8E76068022806D1374843
:101C2000006800F0007040B90120AEE7334800685A
:101C300000F0020008B90120A7E73048406820F012
:101C40000300616808432D494860FFF7F5FE06462A
:101C500009E0FFF7F1FE801B41F28831884202D98A
:101C6000032092E707E02548406800F00C00616817
:101C7000B0EB810FEDD12048006800F00700A842CA
:101C80000ED91D48006820F0070028431A49086053
:101C90000846006800F00700A84201D0012074E760
:101CA000207800F00400042807D11448406820F48C
:101CB000E060E168084311494860207800F00800BE
:101CC000082808D10D48406820F46050216940EA96
:101CD000C1000A49486000F03FF808494968C1F36B
:101CE0000311074A515CC84006490860064800686D
:101CF000FFF7BCFE002048E7002002400010024031
:101D0000E07B00080000002014000020014800686B
:101D1000704700000000002000B5FFF7F7FF0449FE
:101D20004968C1F30221034A515CC84000BD00006C
:101D300000100240F07B000800B5FFF7E7FF044900
:101D40004968C1F3C221034A515CC84000BD00008C
:101D500000100240F07B0008F0B585B00FF26C0C6B
:101D60009CE8E01001A8A0E8E0101CA52D680095F3
:101D700000210022002300240020194D696801F091
:101D80000C05F5B1042D02D0082D19D101E015483C
:101D900019E001ADC1F38346AC5D01F4803555B166
:101DA0000F4D6D68C5F340451DF805200D4D654389
:101DB000B5FBF2F302E00C4D04FB05F3184602E01C
:101DC00000BF084800BF00BF05B0F0BD0203040516
:101DD000060708090A0B0C0D0E0F10100102000077
:101DE0000010024000127A0000093D00F8B50446D8
:101DF0000CB90120F8BD207800F00100002878D04F
:101E0000F848406800F00C0004280CD0F548406801
:101E100000F00C00082811D1F248406800F480302E
:101E2000B0F5803F0AD1EF48006800F40030002888
:101E30005FD0606800285CD10120DBE700BF6068EC
:101E4000B0F5803F06D1E748006840F48030E549AE
:101E5000086028E0606858B9E248006820F48030E3
:101E6000E04908600846006820F4802008601AE015
:101E70006068B0F5A02F0BD1DA48006840F48020EC
:101E8000D84908600846006840F4803008600AE0DD
:101E9000D448006820F48030D249086008460068C1
:101EA00020F48020086000BF606888B1FFF7C4FD9F
:101EB000054606E0FFF7C0FD401B642801D903205A
:101EC00098E7C848006800F400300028F2D010E01D
:101ED000FFF7B2FD054606E0FFF7AEFD401B6428A4
:101EE00001D9032086E7BF48006800F400300028CD
:101EF000F2D1207800F00200022857D1B94840689A
:101F000000F00C0050B1B748406800F00C00082801
:101F100018D1B448406800F4803098B9B1480068DE
:101F200000F0020020B12069012801D0012061E702
:101F3000AC48006820F0F800616940EAC100A94996
:101F4000086033E02069E8B10120A7490860FFF785
:101F500073FD054606E0FFF76FFD401B022801D91F
:101F6000032047E79F48006800F002000028F2D0F5
:101F70009C48006820F0F800616940EAC100994976
:101F8000086013E0002098490860FFF755FD0546FA
:101F900006E0FFF751FD401B022801D9032029E785
:101FA0009048006800F002000028F2D1207800F08C
:101FB000080008282DD1A069B8B101208B4908601C
:101FC000FFF73AFD054606E0FFF736FD401B022805
:101FD00001D903200EE78348406A00F00200002880
:101FE000F2D0012000F0D4FC13E000207F4908600B
:101FF000FFF722FD054606E0FFF71EFD401B022805
:1020000001D90320F6E67748406A00F00200002874
:10201000F2D1207800F00400042873D10027714821
:10202000C06900F0805070B900BF6E48C06940F0D0
:1020300080506C49C8610846C06900F0805000902B
:1020400000BF00BF01276A48006800F48070B0B983
:102050006748006840F4807065490860FFF7ECFC51
:10206000054606E0FFF7E8FC401B642801D9032081
:10207000C0E65F48006800F480700028F2D000BF1E
:10208000E068012806D15748006A40F00100554930
:10209000086227E0E06858B95248006A20F0010061
:1020A000504908620846006A20F00400086219E0FE
:1020B000E06805280BD14B48006A40F0040049490C
:1020C00008620846006A40F0010008620AE04548DC
:1020D000006A20F00100434908620846006A20F0C7
:1020E0000400086200BFE068A0B1FFF7A5FC054648
:1020F00009E0FFF7A1FC401B41F28831884202D978
:10210000032077E622E03748006A00F0020000284A
:10211000EFD012E0FFF790FC054608E0FFF78CFCDB
:10212000401B41F28831884201D9032062E62D48E4
:10213000006A00F002000028F0D1012F05D12948E3
:10214000C06920F080502749C86100BFE069C8B36A
:102150002448406800F00C00082860D0E06902289C
:1021600048D1002020490866FFF766FC054606E0D6
:10217000FFF762FC401B022801D903203AE6194808
:10218000006800F000700028F2D1206AB0F5803FAE
:1021900007D11448406820F40030A1680843114971
:1021A0004860D4E9080108430E49496821F47411D4
:1021B00008430C49486001200B490866FFF73CFCC6
:1021C000054607E03DE0FFF737FC401B022801D938
:1021D00003200FE60348006800F000700028F2D0EA
:1021E0002FE0000000100240000042428004424202
:1021F00000700040002014490866FFF71DFC0546EA
:1022000006E0FFF719FC401B022801D90320F1E585
:102210000E48006800F000700028F2D111E0E0697B
:10222000012800D1E6E50948466806F48031206AB5
:10223000814204D106F47011606A814201D001200C
:10224000D8E50020D6E50000000042420010024020
:1022500070B504460E4615461CB1A069B0F5807FE6
:1022600001D1012070BD94F8410028B9002084F804
:102270004000204600F020F804F108012068FFF734
:10228000F1F83146A2682068FFF728F92946236B48
:10229000D4E90102FFF7C4F8A168206850F82100D2
:1022A00040F00100A268216841F82200012084F872
:1022B00041000020D6E7000010B586B0044600BFFC
:1022C0001E48406940F480701C49486108464069D6
:1022D00000F48070019000BF00BF00BF0846806915
:1022E00040F0200088610846806900F020000190DD
:1022F00000BF00BF00BF0846806940F04000886111
:102300000846806900F04000019000BF00BF4CF219
:102310000370029002200390012004900320059096
:1023200002A90748FFF7D0F94FF68070029002A982
:102330000448FFF7C9F906B010BD000000100240C4
:102340000014014000180140042808D14FF0E0219A
:10235000096941F004014FF0E022116107E04FF0FC
:10236000E021096921F004014FF0E022116170477A
:1023700070B504462546681EB0F1807F01D3012068
:102380000FE0681E4FF0E02148610F214FF0FF3051
:1023900000F0D0FC00204FF0E021886107200861A8
:1023A000002070BD704700002DE9F047044620680A
:1023B00005682068C668206847694FF00008C14674
:1023C00005F00F08B8F1000F0AD105F0200038B170
:1023D00006F0200020B1204600F01AFBBDE8F0878F
:1023E000B8F1000F71D007F0010018B906F4907031
:1023F00000286AD005F0010030B106F4807018B1F1
:10240000E06B40F00100E06305F0040030B107F03C
:10241000010018B1E06B40F00200E06305F002003B
:1024200030B107F0010018B1E06B40F00400E06348
:1024300005F0080048B106F0200010B907F00100CF
:1024400018B1E06B40F00800E063E06B68B305F0A2
:10245000200028B106F0200010B1204600F0D8FA84
:1024600020684069C0F38019E06B00F0080010B9E3
:10247000B9F1000F22D0204600F0AAFA2068406986
:1024800000F04000B0B12068406920F040002168B1
:102490004861606B50B11848616B4863606BFFF72F
:1024A0003FF810B1606B416B88470CE02046FFF7A6
:1024B00079FF08E02046FFF775FF04E02046FFF7AC
:1024C00071FF0020E06389E7FFE705F0800030B18D
:1024D00006F0800018B1204600F068FB7EE705F0AA
:1024E000400030B106F0400018B1204600F080FAFC
:1024F00074E700BF72E70000BD29000810B504466C
:102500000CB9012010BDA06900B100E000BF94F833
:10251000390028B9002084F83800204600F028F857
:10252000242084F839002068C06820F40050216815
:10253000C860204600F0BCFA2068006920F4904092
:10254000216808612068406920F02A0021684861FC
:102550002068C06840F400502168C8600020E06333
:10256000202084F8390084F83A000020CAE70000EF
:1025700010B586B004465549206888424BD100BF4B
:1025800000BF5348806940F0040051498861084603
:10259000806900F00400019000BF00BF00BF00BFD1
:1025A00000BF0846806940F00400886108468069E1
:1025B00000F00400019000BF00BF00BF00BF00BFDB
:1025C0000846806940F4804088610846806900F4CC
:1025D0008040019000BF00BF00BF4815029002205C
:1025E0000390012004900320059002A93948FFF7C9
:1025F0006BF84FF4806002900020039002A93548E8
:10260000FFF762F82520FFF758FA0322114625202C
:10261000FFF763FA57E030492068884253D100BF82
:1026200000BF2B48806940F00800294988610846AE
:10263000806900F00800019000BF00BF00BF00BF2C
:1026400000BF0846806940F008008861084680693C
:1026500000F00800019000BF00BF00BF00BF00BF36
:102660000846C06940F48020C8610846C06900F48B
:102670008020019000BF00BF00BF0815029002201B
:102680000390002004900320059002A91348FFF74F
:102690001BF84FF400600290002003900490032088
:1026A000059002A90D48FFF70FF8002211462720D8
:1026B000FFF713FA2720FFF700FA2068C06840F000
:1026C00020002168C86006B010BD0000003801403D
:1026D000001002400008014000480040000C01408A
:1026E0002DE9F84F04460E46174699464FF0000A6A
:1026F00094F83A0020285DD106B117B90120BDE851
:10270000F88F00BF94F83800012801D10220F6E7C5
:10271000012084F8380000BF0020E063222084F804
:102720003A00FFF789F98246A785E785A068B0F5EA
:10273000805F04D1206910B90025B04602E035461B
:102740004FF0000800BF002084F8380000BF29E0E7
:102750005346002220212046CDF8009000F056FA82
:1027600008B10320CBE745B920684068C0F30800F2
:10277000A8F8000008F1020811E0A068B0F5805F39
:1027800003D0A06828B9206918B92068406828706B
:1027900004E02068406800F07F0028706D1CE08D28
:1027A000401EE085E08D0028D2D1202084F83A0038
:1027B0000020A4E70220A2E710B5034693F83A00F0
:1027C00020282FD101B10AB9012010BD00BF93F814
:1027D0003800012801D10220F7E7012083F83800F2
:1027E00000BF99629A85DA850020D863222083F899
:1027F0003A0000BF002083F8380000BF1868C068A6
:1028000040F480701C68E0601868406940F0010086
:102810001C6860611868C06840F020001C68E060B7
:102820000020D2E70220D0E71D4A0168914236D14C
:102830001C49098801F4004189BB1A49098801F43F
:10284000804171B1184909780A2903D00021154A3D
:10285000118024E01349098841F40041114A118094
:102860001DE0114909780D2906D10E49098841F466
:1028700080410C4A118012E00B490978094A1288FC
:10288000C2F30D02094B995406490988491C054AAF
:10289000118011460988C72901DD00211180704788
:1028A000003801400C0000200E000020280000200D
:1028B0002DE9F84F04460E46174699464FF0000A98
:1028C00094F8390020285AD106B117B90120BDE883
:1028D000F88F00BF94F83800012801D10220F6E7F4
:1028E000012084F8380000BF0020E063212084F834
:1028F0003900FFF7A1F88246A784E784A068B0F505
:10290000805F04D1206910B90025B04602E0354649
:102910004FF0000800BF002084F8380000BF1BE023
:102920005346002280212046CDF8009000F06EF939
:1029300008B10320CBE745B9B8F80000C0F30800A0
:102940002168486008F1020803E02878216848609F
:102950006D1CE08C401EE084E08C0028E0D15346E2
:10296000002240212046CDF8009000F04FF908B138
:102970000320ACE7202084F839000020A7E70220DC
:10298000A5E7704700BFFEE700BFFEE77047000005
:1029900008B508490968C9084FF47A72B1FBF2F129
:1029A0004143009100BF00BF00994A1E00920029D8
:1029B000F9D108BD000000207047704770B505468A
:1029C0006C6A0020E085E0842046FFF7EBFC70BDD8
:1029D0000168C96821F490710268D1600168496991
:1029E00021F0010102685161202180F83A107047FE
:1029F00010B504462068C06820F040002168C86017
:102A0000202084F839002046FFF7BBFF002010BDCE
:102A100070B5044694F83A00222847D1A068B0F572
:102A2000805F0CD1206950B90025A66A20684068F3
:102A3000C0F308003080A06A801CA06215E0A56A7F
:102A40000026A068B0F5805F03D0A06828B920698F
:102A500018B920684068287004E02068406800F0D9
:102A60007F002870A06A401CA062E08D401E80B2EA
:102A7000E085C8B92068C06820F020002168C860DF
:102A80002068C06820F480702168C86020684069B0
:102A900020F0010021684861202084F83A00204697
:102AA000FFF7C2FE002070BD0020FCE70220FAE71D
:102AB00070B504462168096921F44051E268114368
:102AC000226811612269A1681143626941EA020525
:102AD0002168C96841F20C62914329432268D160A0
:102AE0002168496921F44071A2691143226851614A
:102AF0002D4A2168914202D1FFF71EF901E0FFF74C
:102B00000BF900EBC00101EB001162689200B1FB10
:102B1000F2F100EBC00202EB001263689B00B2FB13
:102B2000F3F26423B2FBF3F202EBC20303EB0212F3
:102B3000A1EB8201322202EB01116422B1FBF2F11E
:102B400001F0F00100EBC00202EB001263689B0091
:102B5000B2FBF3F26423B2FBF3F201EB021200EBDF
:102B6000C00101EB001163689B00B1FBF3F100EBC6
:102B7000C00303EB00136668B600B3FBF6F36426EC
:102B8000B3FBF6F303EBC30606EB0313A1EB8301E0
:102B9000322303EB01116423B1FBF3F101F00F01C8
:102BA00011442268916070BD00380140014691F8DF
:102BB0003900212828D18868B0F5805F0BD10869D9
:102BC00048B90A6A1088C0F308000B685860086AA0
:102BD000801C086205E00B6A581C086218780B68B4
:102BE0005860C88C401E80B2C88458B90868C06854
:102BF00020F080000B68D8600868C06840F0400092
:102C00000B68D860002070470220FCE72DE9F041F6
:102C100004460D4617469846069E21E0701CF8B102
:102C20002EB1FEF709FFA0EB0800B04218D92068CA
:102C3000C06820F4D0702168C8602068406920F026
:102C4000010021684861202084F8390084F83A00A6
:102C500000BF002084F8380000BF0320BDE8F081E9
:102C6000206800682840A84201D1012000E000202F
:102C7000B842D3D00020F1E710B50648FFF794FB27
:102C800000BF012204490348FFF796FD0028F8D150
:102C900010BD0000F00000200E0000201CB51548FB
:102CA00000680068C0F3C00090B100BF0020009031
:102CB00010480068006800900E4800684068009066
:102CC00000BF00BF0B48006800680A480068406801
:102CD000084800680068C0F3401050B14FF0FF335F
:102CE000012201A90348FFF7FBFC012101A800F024
:102CF00093FB1CBD8801002000BFFEE7490050EA9D
:102D0000C12018BF04204A0D18BF40F0010040F256
:102D1000FF72B2EB515F08BF40F00200012808BF0C
:102D20000520704702480068C0F302207047000089
:102D30000CED00E010B5002804DB0A07130E054A6D
:102D4000135406E00A07140E034A00F00F031B1F7A
:102D5000D45410BD00E400E018ED00E030380A283B
:102D600001D2012070470020704700BF704700006B
:102D70002DE9F0418AB004460E46242101A8FDF752
:102D800054FB1CB901200AB0BDE8F0813346002293
:102D9000012101A800F08CF805460DB10120F2E7F1
:102DA0009DF80910090209B29DF8082041EA0200C5
:102DB00004F01CFE80464FF08E4104F039FD0746BA
:102DC000164904F03FFE20609DF80B10090209B27D
:102DD0009DF80A2041EA020004F008FE80464FF008
:102DE0008E4104F025FD07460C4904F02BFE60607F
:102DF0009DF80D10090209B29DF80C2041EA02006D
:102E000004F0F4FD80464FF08E4104F011FD0746BA
:102E1000024904F017FEA0600020B4E7000034432C
:102E2000F0B589B004460E4624216846FDF7FDFA48
:102E300014B9012009B0F0BD3346002205216846CF
:102E400000F036F805460DB10120F3E79DF80700C4
:102E500001069DF8060041EA00419DF8050041EA9F
:102E600000209DF80410084320609DF80B00010627
:102E70009DF80A0041EA00419DF8090041EA00205E
:102E80009DF80810084360609DF80D10090209B212
:102E90009DF80C2041EA020004F0A8FD0746034912
:102EA00004F0C6FCA0600020C4E700000000C84297
:102EB0002DE9F84F0446884691461D464FF0000A1A
:102EC00000260027C3E015B90320BDE8F88F0121D3
:102ED000684600F061FA50B9012000F0FDFA781C54
:102EE00087B2B7F57A7F01D100276D1EAFE0BAF146
:102EF000040F65D009DCBAF1000F0DD0BAF1010F53
:102F00001AD0BAF1020F70D147E0BAF1080F71D0B0
:102F1000BAF1160FF7D180E09DF80000552808D1CE
:102F20009DF800002070207884F820004FF0010AFE
:102F300001E04FF0000A7EE0B9F1000F03D0B9F1D3
:102F4000010F26D112E09DF8000055280BD19DF805
:102F50000000607094F820006178084484F8200034
:102F60004FF0020A01E04FF0000A14E09DF8000063
:102F7000AF280BD19DF80000607094F820006178B4
:102F8000084484F820004FF0020A01E04FF0000AE4
:102F900001E0022099E700BF4DE09DF800004045A8
:102FA0000BD19DF80000A07094F82000A17808448F
:102FB00084F820004FF0040A01E04FF0000A3AE0E4
:102FC0009DF800001C2802DD4FF0000A11E09DF87A
:102FD0000000E07094F82000E178084484F82000B4
:102FE000E07820B94FF0160A03E021E002E04FF04C
:102FF000080A20E09DF80010201D815594F820104B
:10300000805D084484F82000701CC6B2E078B042AD
:1030100002D100264FF0160A0DE094F820009DF82A
:103020000010884201D100204FE74FF0000A02E073
:103030004FF0000A00BF00BF012000F04DFA781CDD
:1030400087B2B7F57A7F01D100276D1E00BF3AE73E
:103050002DE9F0478AB004460D461746242101A801
:10306000FDF7E3F924B91DB901200AB0BDE8F087E6
:103070003B460022032101A8FFF71AFF06460EB1C6
:103080000120F2E7002C59D09DF80F00000200B299
:103090009DF80E10084320809DF81100000200B238
:1030A0009DF81010084360809DF81300000200B2E4
:1030B0009DF812100843A0804E4909784E4A32F814
:1030C000110004F0ABFC8146B4F9000004F08EFC62
:1030D00082464FF08E4104F0ABFB8046494604F037
:1030E000B1FCA06043490978434A32F8110004F06A
:1030F00095FC8146B4F9020004F078FC82464FF05A
:103100008E4104F095FB8046494604F09BFCE0604C
:1031100038490978384A32F8110004F07FFC8146BA
:10312000B4F9040004F062FC82464FF08E4104F0D2
:103130007FFB8046494604F085FC2061002D56D077
:103140009DF80900000200B29DF80810084328808D
:103150009DF80B00000200B29DF80A100843688039
:103160009DF80D00000200B29DF80C100843A880E5
:1031700020494978214A505C04F050FC8146B5F959
:10318000000004F033FC82464FF08E4104F050FB07
:103190008046494604F056FCA86016494978174A0B
:1031A000505C04F03BFC8146B5F9020004F01EFCC3
:1031B00082464FF08E4104F03BFB8046494604F0C6
:1031C00041FCE8600B4949780C4A505C04F026FC4D
:1031D0008146B5F9040004F009FC82464FF08E41A7
:1031E00004F026FB8046494604F02CFC28610020B0
:1031F0003BE700002400002078AB000880AB00080B
:10320000F0B589B004460E4624216846FDF70DF955
:1032100014B9012009B0F0BD3346002204216846EC
:10322000FFF746FE05460DB10120F3E79DF80500C6
:10323000000200B29DF80410084320809DF80700AA
:10324000000200B29DF80610084360809DF8090056
:10325000000200B29DF808100843A0809DF80B10F2
:10326000090209B29DF80A2041EA020004F0BEFBFF
:103270000746034904F0DCFAA0600020CAE700001A
:103280000000C84270B50546284600F063F8642285
:103290000949032000F012F804460CB9012070BD62
:1032A00064220549491C042000F008F804460CB9C2
:1032B0000120F4E70020F2E7240000202DE9F0418E
:1032C0008CB005460E461746242101A8FDF7ADF83F
:1032D00055208DF82800AF208DF8290045F080009A
:1032E0008DF82A0001208DF82B0000208DF82C008D
:1032F0009DF828009DF8291008449DF82A100844DC
:103300009DF82B1008449DF82C100844C0B28DF88D
:103310002D0006210AA800F0A1F83B46012229460B
:1033200001A8FFF7C5FD8046B8F1000F03D00020CB
:103330000CB0BDE8F081002404E002A8005D305527
:10334000601CC4B29DF80700A042F6DC9DF807009F
:10335000EEE7000010B504460C480D490860084629
:10336000446000218160C16001610C214161002144
:103370008161C161FFF7C2F880200649A1F8800091
:103380000020A1F88200A1F8840010BD0048004090
:1033900088010020C801002070B504461D48B0F81F
:1033A00084001C4DB5F88250A84208DB1948B0F8DB
:1033B0008400184DB5F88250401B82B20BE01548CE
:1033C000B0F88000134DB5F88250401B114DB5F890
:1033D0008450284482B2914200DD1146002314E05B
:1033E0000C48B0F882000B4D285CE0542846B0F839
:1033F0008200401CB5F8805090FBF5F605FB1600E6
:10340000044DA5F88200581C83B28B42E8DB0846C5
:1034100070BD0000C801002030B502460B460021F7
:1034200015E0505C0C4CB4F884400B4D28552846F0
:10343000B0F88400401C2C46B4F8804090FBF4F5B2
:1034400004FB1500044CA4F88400481C81B2994286
:10345000E7DB002030BD0000C801002070B5044645
:103460000D464FF0FF332A4621460248FFF720FA67
:1034700070BD00008801002010B5044600204FF008
:10348000E0210861FEF760FF2046E11704EB51716F
:10349000C1F3CF01014A118010BD000004000020DB
:1034A00070B504464FF47A7094FBF0F594FBF0F19C
:1034B00000FB114603E0074800F00EF86D1E002DDA
:1034C000F9D12EB14FF47A7106FB01F000F004F847
:1034D00070BD000040420F000146114A12884A4365
:1034E0004FF0E0235A6100229A611A46126942F0B5
:1034F00001021A6100BF4FF0E022106900F00102E2
:103500001AB100F48032002AF5D04FF0E02212699F
:1035100022F001024FF0E0231A6100229A61704705
:10352000040000202DE9F04397B0642114A8FFF7B0
:103530001FFC64220AA90FA8FFF78AFD642107A8CF
:10354000FFF75EFE642104A8FFF76AFC04A914A833
:1035500000F0BCF9169804F03FF904460D461598A2
:1035600004F03AF906460F46149804F035F98046FF
:1035700042460B4629A0CDE90067CDE90245FCF79C
:1035800059FE139804F028F904460D46129804F0E9
:1035900023F906460F46119804F01EF9804642466C
:1035A0000B4629A0CDE90067CDE90245FCF742FEB4
:1035B0000E9804F011F904460D460D9804F00CF92C
:1035C00006460F460C9804F007F9804642460B4623
:1035D00028A0CDE90067CDE90245FCF72BFE09984C
:1035E00004F0FAF8CDE90001BDF92030BDF91E2044
:1035F000BDF91C1028A0FCF71DFE069804F0ECF89D
:10360000CDE900012EA0DDE90412FCF713FE36A07F
:10361000FCF710FE17B0BDE8F0830000526F6C6C31
:103620003A20252E303266A1E32050697463683A4F
:1036300020252E303266A1E3205961773A20252ECD
:10364000303266A1E30D0A0047783A20252E303249
:1036500066A1E32F732047793A20252E303266A1E8
:10366000E32F7320477A3A20252E303266A1E32FCC
:10367000730D0A0041783A20252E303266472041EA
:10368000793A20252E3032664720417A3A20252E7D
:10369000303266470D0A00004D783A202564204DEF
:1036A000793A202564204D7A3A2025642C205465EF
:1036B0006D703A20252E303266A1E30D0A0000001D
:1036C000507265733A202564506120416C743A2031
:1036D0002564636D2054656D703A20252E30326666
:1036E000A1E30D0A000000002A2A2A2A2A2A2A2AEF
:1036F0002A2A2A2A2A2A2A2A2A2A2A2A2A2A2A2A2A
:103700002A2A2A2A2A2A2A2A2A2A2A2A2A2A2A2A19
:103710000D0A0D0A000000000EB51F2023A1102283
:103720001346CDE900210290C8228221142003F023
:10373000CFFC1F2023A110221346CDE900210290C7
:10374000C8229721142003F0C3FC1F2023A11022BC
:103750001346CDE900210290C822AC21142003F0C9
:10376000B7FC1F2023A110221346CDE900210290AF
:10377000C822C121142003F0ABFC1F2023A110227A
:103780001346CDE900210290C822D621142003F06F
:103790009FFC1F2023A110221346CDE90021029097
:1037A000C822EB21142003F093FC0EBD526F6C6C09
:1037B000202020202020203A202020302E303027AA
:1037C0000000000050697463682020202020203A07
:1037D000202020302E303027000000005961772053
:1037E000202020202020203A202020302E3030277A
:1037F0000000000050726573737572652020203AD6
:10380000202020202020305061000000416C74698D
:10381000747564652020203A202020202020306309
:103820006D00000074656D70657261747572653A43
:10383000202020302E303027000000004FF4E130EF
:10384000FFF720FD05466DB111A0FCF7F3FC08E081
:1038500000BF20211548FEF7DFF800BFC820FFF7A2
:103860001FFEF5E712A0FCF7E5FCFFF755FF0DE0A2
:10387000002000F0F5F90446012C02D1FFF752FEBA
:1038800000E000BF00BF0A20FFF70AFEF0E70000DB
:1038900041544B2D4D533930314D20696E697420A0
:1038A0006661696C6564210D0A000000000C01402E
:1038B00041544B2D4D533930314D20696E69742080
:1038C00073756363657373210D0A0A00FEB50546BF
:1038D0000E46AB49286804F0B5F8074604F06AF8CC
:1038E0000446002C0DDA64421F20A6A110221346C4
:1038F000CDE90021029008228221742003F0E8FB28
:103900000BE01F20A0A110221346CDE90021029058
:1039100008228221742003F0DBFB642094FBF0F783
:103920001F20102103233A46CDE9001082217C207C
:1039300003F082FB642094FBF0F100FB11471F2091
:10394000802110220223CDE9002102903A468221F3
:103950009C2003F0F2FB8A49686804F073F807467C
:1039600004F028F80446002C0DDA64421F2085A1DB
:1039700010221346CDE900210290082297217420DD
:1039800003F0A6FB0BE01F207FA110221346CDE918
:103990000021029008229721742003F099FB6420F3
:1039A00094FBF0F71F20102103233A46CDE90010C5
:1039B00097217C2003F040FB642094FBF0F100FB96
:1039C00011471F20802110220223CDE900210290FF
:1039D0003A4697219C2003F0B0FB6949A86804F09F
:1039E00031F8074603F0E6FF0446002C0DDA644286
:1039F0001F2064A110221346CDE900210290082265
:103A0000AC21742003F064FB0BE01F205EA11022A8
:103A10001346CDE9002102900822AC21742003F066
:103A200057FB642094FBF0F71F20102103233A4634
:103A3000CDE90010AC217C2003F0FEFA642094FB59
:103A4000F0F100FB11471F20802110220223CDE955
:103A5000002102903A46AC219C2003F06EFB3468B2
:103A6000002C0DDA64421F2046A110221346CDE936
:103A7000002102900822C121742003F029FB0BE0F1
:103A80001F2041A110221346CDE9002102900822F7
:103A9000C121742003F01CFB1F20102106232246A5
:103AA000CDE90010C1217C2003F0C6FA7468002C17
:103AB0000DDA64421F2033A110221346CDE9002104
:103AC00002900822D621742003F002FB0BE01F2095
:103AD0002DA110221346CDE9002102900822D62103
:103AE000742003F0F5FA1F20102106232246CDE9A9
:103AF0000010D6217C2003F09FFA2149B06803F022
:103B0000A1FF074603F056FF0446002C0DDA64427D
:103B10001F201CA110221346CDE90021029008228B
:103B2000EB21742003F0D4FA0BE01F2016A1102221
:103B30001346CDE9002102900822EB21742003F006
:103B4000C7FA642094FBF0F71F20102103233A46A4
:103B5000CDE90010EB217C2003F06EFA642094FB89
:103B6000F0F100FB11471F20802110220223CDE934
:103B7000002102903A46EB219C2003F0DEFAFEBDC4
:103B80000000C8422D0000002000000000BF054AD0
:103B9000126802F04002002AF9D0C2B2014B1B1D8C
:103BA0001A6070470038014000B585B000BF00BF03
:103BB0002848806940F040002649886108468069AD
:103BC00000F04000009000BF00BF00BF00BF00BF7A
:103BD0000846806940F0400088610846806900F02E
:103BE0004000009000BF00BF00BF00BF00BF0846FC
:103BF000806940F0040088610846806900F0040094
:103C0000009000BF00BF00BF102001900020029074
:103C1000012003900320049001A90F48FDF754FDF3
:103C200008200190002002900120039003200490BE
:103C300001A90948FDF748FD0120019000200290EC
:103C4000022003900320049001A90448FDF73CFDE5
:103C500005B000BD001002400018014000080140FE
:103C600070B50446002514B101202249087021488E
:103C7000007848B310212048FDF7C6FE50B1082156
:103C80001D48FDF7C1FE28B101211C48FDF7BCFE0F
:103C9000012819D10A20FFF703FC002015490870FC
:103CA00010211548FDF7B0FE00B901250821124882
:103CB000FDF7AAFE00B9022501211048FDF7A4FE78
:103CC000012815D1032513E010210B48FDF79CFEB8
:103CD00001280DD108210848FDF796FE012807D1DB
:103CE00001210648FDF790FE10B901200149087036
:103CF000284670BD1900002000180140000801404E
:103D000070B50446002609480588408845430021CF
:103D1000084603F061F803F0B5FA00BF02E004487A
:103D20000480761CAE42FAD370BD000078010020FA
:103D30000008006C10B5044658488471002C58D116
:103D4000F020564908804FF4A070488008468088CB
:103D500045F21051884210D14FF430504F4908813C
:103D60004FF4285048814FF42C5088814FF4F07064
:103D700008804FF4487048801AE04848808841F62F
:103D8000631188420DD12C20444908812B204881A1
:103D90002A2088814FF4F07008804FF448704880E2
:103DA00006E02C203D4908812A2048812B2088816B
:103DB0003A48808845F21031884205D037488088DB
:103DC00047F29671884206D14FF4A07033490880BB
:103DD0004FF4F07048803148808849F606018842E7
:103DE00058D14FF4F0702D4908804FF44870488046
:103DF00050E04FF4A07029490880F0204880084620
:103E0000808845F21051884210D14FF43050234938
:103E100008814FF4285048814FF42C5088814FF48A
:103E2000487008804FF4F070488020E01B4880887C
:103E300041F66311884205D01848808849F606018A
:103E400088420DD12C20154908812A2048812B2039
:103E500088814FF4487008804FF4F070488006E085
:103E60002C200E4908812A2048812B2088810B486C
:103E7000808845F21031884205D00848808847F292
:103E80009671884206D14FF4F070044908804FF4CF
:103E9000A0704880002002F081FE10BD7801002053
:103EA00070B505460E4614463146284602F094FF8A
:103EB00003F0E8F901490C8070BD00000008006CB7
:103EC00010B5CF2003F0D2F9002003F0C3F9C120D0
:103ED00003F0C0F9302003F0BDF9ED2003F0C6F97E
:103EE000642003F0B7F9032003F0B4F9122003F0C3
:103EF000B1F9812003F0AEF9E82003F0B7F985208D
:103F000003F0A8F9102003F0A5F97A2003F0A2F934
:103F1000CB2003F0ABF9392003F09CF92C2003F0FF
:103F200099F9002003F096F9342003F093F9022068
:103F300003F090F9F72003F099F9202003F08AF9B3
:103F4000EA2003F093F9002003F084F9002003F045
:103F500081F9C02003F08AF91B2003F07BF9C1200E
:103F600003F084F9012003F075F9C52003F07EF910
:103F7000302003F06FF9302003F06CF9C72003F014
:103F800075F9B72003F066F9362003F06FF9482081
:103F900003F060F93A2003F069F9552003F05AF96B
:103FA000B12003F063F9002003F054F91A2003F064
:103FB00051F9B62003F05AF90A2003F04BF9A22078
:103FC00003F048F9F22003F051F9002003F042F920
:103FD000262003F04BF9012003F03CF9E02003F028
:103FE00045F90F2003F036F92A2003F033F9282091
:103FF00003F030F9082003F02DF90E2003F02AF920
:10400000082003F027F9542003F024F9A92003F035
:1040100021F9432003F01EF90A2003F01BF90F20B9
:1040200003F018F9002003F015F9002003F012F94D
:10403000002003F00FF9002003F00CF9E12003F059
:1040400015F9002003F006F9152003F003F91720F5
:1040500003F000F9072003F0FDF8112003F0FAF84F
:10406000062003F0F7F82B2003F0F4F8562003F0B5
:10407000F1F83C2003F0EEF8052003F0EBF81020F7
:1040800003F0E8F80F2003F0E5F83F2003F0E2F832
:104090003F2003F0DFF80F2003F0DCF82B2003F0C3
:1040A000E5F8002003F0D6F8002003F0D3F8012053
:1040B00003F0D0F83F2003F0CDF82A2003F0D6F823
:1040C000002003F0C7F8002003F0C4F8002003F03C
:1040D000C1F8EF2003F0BEF8112003F0C7F87820F4
:1040E000FFF7DEF9292003F0C1F810BD10B5FF205D
:1040F00003F0BCF8FF2003F0ADF8982003F0AAF815
:10410000062003F0A7F8BC2003F0B0F8012003F06C
:10411000A1F80F2003F09EF8612003F09BF8FF2028
:1041200003F098F8012003F095F8012003F092F8CD
:104130000B2003F08FF8102003F08CF8372003F0E9
:1041400089F8632003F086F8FF2003F083F8FF204E
:1041500003F080F8012003F07DF8012003F07AF8E5
:10416000002003F077F8002003F074F8FF2003F03C
:1041700071F8522003F06EF8012003F06BF8002074
:1041800003F068F8402003F065F8BD2003F06EF8F6
:10419000012003F05FF8232003F05CF8452003F0D2
:1041A00059F8672003F056F8012003F053F8232054
:1041B00003F050F8452003F04DF8672003F04AF86B
:1041C000BE2003F053F8002003F044F8012003F070
:1041D00041F8AB2003F03EF8602003F03BF82220CA
:1041E00003F038F8222003F035F8222003F032F8EB
:1041F000222003F02FF8222003F02CF8C72003F030
:1042000035F8362003F026F8ED2003F02FF87F2054
:1042100003F020F80F2003F01DF8C02003F026F86B
:104220000F2003F017F80B2003F014F80A2003F016
:1042300011F8FC2003F01AF8082003F00BF8DF2037
:1042400003F014F8002003F005F8002003F002F852
:10425000002002F0FFFF002002F0FCFF002002F02F
:10426000F9FF202002F0F6FFF32002F0FFFF742098
:1042700002F0F0FFB42002F0F9FF002002F0EAFFA4
:10428000002002F0E7FF002002F0E4FFF72002F038
:10429000EDFF822002F0DEFFB12002F0E7FF0020F8
:1042A00002F0D8FF132002F0D5FF132002F0D2FF56
:1042B000F22002F0DBFF802002F0CCFF042002F0AD
:1042C000C9FF402002F0C6FF282002F0C3FFC12032
:1042D00002F0CCFF172002F0BDFF882002F0BAFFE9
:1042E000882002F0B7FF202002F0B4FFE02002F0A7
:1042F000BDFF002002F0AEFF0A2002F0ABFF12204B
:1043000002F0A8FF102002F0A5FF0E2002F0A2FF8D
:10431000202002F09FFFCC2002F09CFF072002F03B
:1043200099FF062002F096FF0B2002F093FF0E206B
:1043300002F090FF0F2002F08DFF0D2002F08AFFA7
:10434000152002F087FF102002F084FF002002F009
:1043500081FFE12002F08AFF002002F07BFF0B20AA
:1043600002F078FF132002F075FF0D2002F072FFBB
:104370000E2002F06FFF1B2002F06CFF712002F094
:1043800069FF062002F066FF062002F063FF0A20A4
:1043900002F060FF0F2002F05DFF0E2002F05AFFD6
:1043A0000F2002F057FF152002F054FF0C2002F0FE
:1043B00051FF002002F04EFF2A2002F057FF00209C
:1043C00002F048FF002002F045FF012002F042FF0A
:1043D000DF2002F03FFF2B2002F048FF002002F018
:1043E00039FF002002F036FF032002F033FF1F20C8
:1043F00002F030FF3A2002F039FF552002F02AFF88
:10440000362002F033FF002002F024FF112002F0DA
:104410002DFF7820FFF744F8292002F027FF142011
:10442000FFF73EF82C2002F021FF10BD10B5ED2063
:1044300002F01CFF012002F00DFFFE2002F00AFF37
:10444000EE2002F013FFDE2002F004FF212002F034
:1044500001FFF12002F00AFF012002F0FBFEDF2045
:1044600002F004FF102002F0F5FEC42002F0FEFE70
:104470008F2002F0EFFEC62002F0F8FE002002F0CE
:10448000E9FEE22002F0E6FEE22002F0E3FEE22096
:1044900002F0E0FEBF2002F0E9FEAA2002F0DAFE00
:1044A000B02002F0E3FE0D2002F0D4FE002002F066
:1044B000D1FE0D2002F0CEFE002002F0CBFE112036
:1044C00002F0C8FE002002F0C5FE192002F0C2FE74
:1044D000002002F0BFFE212002F0BCFE002002F00E
:1044E000B9FE2D2002F0B6FE002002F0B3FE3D2002
:1044F00002F0B0FE002002F0ADFE5D2002F0AAFE48
:10450000002002F0A7FE5D2002F0A4FE002002F0D1
:10451000A1FEB12002F0AAFE802002F09BFE002046
:1045200002F098FE8B2002F095FE002002F092FE31
:10453000962002F08FFE002002F08CFEB22002F0E6
:1045400095FE002002F086FE002002F083FE02208D
:1045500002F080FE002002F07DFE032002F07AFED1
:10456000002002F077FEB32002F080FE002002F06F
:1045700071FE002002F06EFE002002F06BFE0020B3
:1045800002F068FE002002F065FE002002F062FEEC
:10459000002002F05FFE002002F05CFE002002F02E
:1045A00059FE002002F056FE002002F053FE0020CB
:1045B00002F050FE002002F04DFE002002F04AFE04
:1045C000002002F047FE002002F044FE002002F02E
:1045D00041FE002002F03EFE002002F03BFE0020E3
:1045E00002F038FE002002F035FE002002F032FE1C
:1045F000002002F02FFE002002F02CFEB42002F07A
:1046000035FE8B2002F026FE002002F023FE9620CD
:1046100002F020FE002002F01DFEA12002F01AFE92
:10462000002002F017FEB52002F020FE022002F06A
:1046300011FE002002F00EFE032002F00BFE00200F
:1046400002F008FE042002F005FE002002F002FE47
:10465000B62002F00BFE002002F0FCFD002002F06C
:10466000F9FDB72002F002FE002002F0F3FD002069
:1046700002F0F0FD3F2002F0EDFD002002F0EAFD27
:104680005E2002F0E7FD002002F0E4FD642002F06D
:10469000E1FD002002F0DEFD8C2002F0DBFD0020B9
:1046A00002F0D8FDAC2002F0D5FD002002F0D2FDD2
:1046B000DC2002F0CFFD002002F0CCFD702002F0E3
:1046C000C9FD002002F0C6FD902002F0C3FD0020CD
:1046D00002F0C0FDEB2002F0BDFD002002F0BAFDAB
:1046E000DC2002F0B7FD002002F0B4FDB82002F09B
:1046F000BDFD002002F0AEFD002002F0ABFD002069
:1047000002F0A8FD002002F0A5FD002002F0A2FDAD
:10471000002002F09FFD002002F09CFD002002F02E
:1047200099FDBA2002F0A2FD242002F093FD0020A2
:1047300002F090FD002002F08DFD002002F08AFDC5
:10474000C12002F093FD202002F084FD002002F041
:1047500081FD542002F07EFD002002F07BFDFF2051
:1047600002F078FD002002F075FDC22002F07EFD0F
:104770000A2002F06FFD002002F06CFD042002F020
:1047800069FD002002F066FDC32002F06FFD3C20B1
:1047900002F060FD002002F05DFD3A2002F05AFDBB
:1047A000002002F057FD392002F054FD002002F0F5
:1047B00051FD372002F04EFD002002F04BFD3C2061
:1047C00002F048FD002002F045FD362002F042FDD7
:1047D000002002F03FFD322002F03CFD002002F0FC
:1047E00039FD2F2002F036FD002002F033FD2C2091
:1047F00002F030FD002002F02DFD292002F02AFDFC
:10480000002002F027FD262002F024FD002002F007
:1048100021FD242002F01EFD002002F01BFD2420BB
:1048200002F018FD002002F015FD232002F012FD19
:10483000002002F00FFD3C2002F00CFD002002F0F1
:1048400009FD362002F006FD002002F003FD3220B3
:1048500002F000FD002002F0FDFC2F2002F0FAFC27
:10486000002002F0F7FC2C2002F0F4FC002002F003
:10487000F1FC292002F0EEFC002002F0EBFC2620E7
:1048800002F0E8FC002002F0E5FC242002F0E2FC4B
:10489000002002F0DFFC242002F0DCFC002002F00B
:1048A000D9FC232002F0D6FC002002F0D3FCC42067
:1048B00002F0DCFC622002F0CDFC002002F0CAFC19
:1048C000052002F0C7FC002002F0C4FC842002F0A6
:1048D000C1FC002002F0BEFCF02002F0BBFC002076
:1048E00002F0B8FC182002F0B5FC002002F0B2FC87
:1048F000A42002F0AFFC002002F0ACFC182002F073
:10490000A9FC002002F0A6FC502002F0A3FC00202D
:1049100002F0A0FC0C2002F09DFC002002F09AFCAA
:10492000172002F097FC002002F094FC952002F082
:1049300091FC002002F08EFCF32002F08BFC0020A2
:1049400002F088FCE62002F085FC002002F082FCE8
:10495000C52002F08BFC322002F07CFC002002F02B
:1049600079FC442002F076FC002002F073FC652004
:1049700002F070FC002002F06DFC762002F06AFC70
:10498000002002F067FC882002F064FC002002F0A6
:1049900061FCC62002F06AFC202002F05BFC0020D3
:1049A00002F058FC172002F055FC002002F052FCE7
:1049B000012002F04FFC002002F04CFCC72002F066
:1049C00055FC002002F046FC002002F043FC0020D1
:1049D00002F040FC002002F03DFCC82002F046FC42
:1049E000002002F037FC002002F034FC002002F02E
:1049F00031FC002002F02EFCC92002F037FC002020
:104A000002F028FC002002F025FC002002F022FC2D
:104A1000002002F01FFC002002F01CFC002002F02D
:104A200019FC002002F016FC002002F013FC00200C
:104A300002F010FC002002F00DFC002002F00AFC45
:104A4000002002F007FC002002F004FC002002F02D
:104A500001FC002002F0FEFB002002F0FBFBE02046
:104A600002F004FC162002F0F5FB002002F0F2FB3D
:104A70001C2002F0EFFB002002F0ECFB212002F0F2
:104A8000E9FB002002F0E6FB362002F0E3FB002009
:104A900002F0E0FB462002F0DDFB002002F0DAFB32
:104AA000522002F0D7FB002002F0D4FB642002F079
:104AB000D1FB002002F0CEFB7A2002F0CBFB0020DD
:104AC00002F0C8FB8B2002F0C5FB002002F0C2FB05
:104AD000992002F0BFFB002002F0BCFBA82002F0EE
:104AE000B9FB002002F0B6FBB92002F0B3FB0020B6
:104AF00002F0B0FBC42002F0ADFB002002F0AAFBE4
:104B0000CA2002F0A7FB002002F0A4FBD22002F092
:104B1000A1FB002002F09EFBD92002F09BFB0020AD
:104B200002F098FBE02002F095FB002002F092FBDF
:104B3000F32002F08FFB002002F08CFBE12002F05A
:104B400095FB162002F086FB002002F083FB1C2060
:104B500002F080FB002002F07DFB222002F07AFBB5
:104B6000002002F077FB362002F074FB002002F0F8
:104B700071FB452002F06EFB002002F06BFB52201F
:104B800002F068FB002002F065FB642002F062FB8B
:104B9000002002F05FFB7A2002F05CFB002002F0B4
:104BA00059FB8B2002F056FB002002F053FB9920AA
:104BB00002F050FB002002F04DFBA82002F04AFB5F
:104BC000002002F047FBB92002F044FB002002F075
:104BD00041FBC42002F03EFB002002F03BFBCA2058
:104BE00002F038FB002002F035FBD22002F032FB4D
:104BF000002002F02FFBD82002F02CFB002002F056
:104C000029FBE02002F026FB002002F023FBF3202A
:104C100002F020FB002002F01DFBE22002F026FB48
:104C2000052002F017FB002002F014FB0B2002F01D
:104C300011FB002002F00EFB1B2002F00BFB0020FA
:104C400002F008FB342002F005FB002002F002FB1A
:104C5000442002F0FFFA002002F0FCFA4F2002F09C
:104C6000F9FA002002F0F6FA612002F0F3FA0020CF
:104C700002F0F0FA792002F0EDFA002002F0EAFAF0
:104C8000882002F0E7FA002002F0E4FA972002F010
:104C9000E1FA002002F0DEFAA62002F0DBFA0020A2
:104CA00002F0D8FAB72002F0D5FA002002F0D2FACA
:104CB000C22002F0CFFA002002F0CCFAC72002F0A6
:104CC000C9FA002002F0C6FAD12002F0C3FA00208F
:104CD00002F0C0FAD62002F0BDFA002002F0BAFAC3
:104CE000DD2002F0B7FA002002F0B4FAF32002F05F
:104CF000B1FA002002F0AEFAE32002F0B7FA052084
:104D000002F0A8FA002002F0A5FA0A2002F0A2FAA6
:104D1000002002F09FFA1C2002F09CFA002002F012
:104D200099FA332002F096FA002002F093FA442018
:104D300002F090FA002002F08DFA502002F08AFA78
:104D4000002002F087FA622002F084FA002002F0CC
:104D500081FA782002F07EFA002002F07BFA8820A7
:104D600002F078FA002002F075FA972002F072FA49
:104D7000002002F06FFAA62002F06CFA002002F088
:104D800069FAB72002F066FA002002F063FAC22046
:104D900002F060FA002002F05DFAC72002F05AFA31
:104DA000002002F057FAD12002F054FA002002F05D
:104DB00051FAD52002F04EFA002002F04BFADD2025
:104DC00002F048FA002002F045FAF32002F042FA1D
:104DD000002002F03FFAE42002F048FA012002F03D
:104DE00039FA002002F036FA012002F033FA0020EE
:104DF00002F030FA022002F02DFA002002F02AFA26
:104E00002A2002F027FA002002F024FA3C2002F0C7
:104E100021FA002002F01EFA4B2002F01BFA0020BB
:104E200002F018FA5D2002F015FA002002F012FAE2
:104E3000742002F00FFA002002F00CFA842002F035
:104E400009FA002002F006FA932002F003FA00208B
:104E500002F000FAA22002F0FDF9002002F0FAF9B7
:104E6000B32002F0F7F9002002F0F4F9BE2002F0BE
:104E7000F1F9002002F0EEF9C42002F0EBF9002075
:104E800002F0E8F9CD2002F0E5F9002002F0E2F9A5
:104E9000D32002F0DFF9002002F0DCF9DD2002F07F
:104EA000D9F9002002F0D6F9F32002F0D3F900205E
:104EB00002F0D0F9E52002F0D9F9002002F0CAF999
:104EC000002002F0C7F9002002F0C4F9002002F02F
:104ED000C1F9022002F0BEF9002002F0BBF929203E
:104EE00002F0B8F9002002F0B5F93C2002F0B2F966
:104EF000002002F0AFF94B2002F0ACF9002002F0E4
:104F0000A9F95D2002F0A6F9002002F0A3F97420AF
:104F100002F0A0F9002002F09DF9842002F09AF935
:104F2000002002F097F9932002F094F9002002F09B
:104F300091F9A22002F08EF9002002F08BF9B32043
:104F400002F088F9002002F085F9BE2002F082F913
:104F5000002002F07FF9C42002F07CF9002002F06A
:104F600079F9CD2002F076F9002002F073F9D32010
:104F700002F070F9002002F06DF9DC2002F06AF90D
:104F8000002002F067F9F32002F064F9002002F03B
:104F900061F9E62002F06AF9112002F05BF90020C5
:104FA00002F058F9342002F055F9002002F052F9CD
:104FB000562002F04FF9002002F04CF9762002F062
:104FC00049F9002002F046F9772002F043F9002069
:104FD00002F040F9662002F03DF9002002F03AF9B3
:104FE000882002F037F9002002F034F9992002F00D
:104FF00031F9002002F02EF9BB2002F02BF900203D
:1050000002F028F9992002F025F9002002F022F997
:10501000662002F01FF9002002F01CF9552002F072
:1050200019F9002002F016F9552002F013F90020BA
:1050300002F010F9452002F00DF9002002F00AF903
:10504000432002F007F9002002F004F9442002F0A6
:1050500001F9002002F0FEF8E72002F007F9322003
:1050600002F0F8F8002002F0F5F8552002F0F2F80E
:10507000002002F0EFF8762002F0ECF8002002F0B9
:10508000E9F8662002F0E6F8002002F0E3F8672075
:1050900002F0E0F8002002F0DDF8672002F0DAF814
:1050A000002002F0D7F8872002F0D4F8002002F0A8
:1050B000D1F8992002F0CEF8002002F0CBF8BB2006
:1050C00002F0C8F8002002F0C5F8992002F0C2F8FA
:1050D000002002F0BFF8772002F0BCF8002002F0B8
:1050E000B9F8442002F0B6F8002002F0B3F85620D8
:1050F00002F0B0F8002002F0ADF8232002F0AAF888
:10510000002002F0A7F8332002F0A4F8002002F0FB
:10511000A1F8452002F09EF8002002F09BF8E8205C
:1051200002F0A4F8002002F095F8002002F092F8B6
:10513000992002F08FF8002002F08CF8872002F00E
:1051400089F8002002F086F8882002F083F8002019
:1051500002F080F8772002F07DF8002002F07AF863
:10516000662002F077F8002002F074F8882002F040
:1051700071F8002002F06EF8AA2002F06BF800200F
:1051800002F068F8BB2002F065F8002002F062F837
:10519000992002F05FF8002002F05CF8662002F02F
:1051A00059F8002002F056F8552002F053F800207C
:1051B00002F050F8552002F04DF8002002F04AF8B5
:1051C000442002F047F8002002F044F8442002F0A6
:1051D00041F8002002F03EF8552002F03BF8002094
:1051E00002F038F8E92002F041F8AA2002F032F883
:1051F000002002F02FF8002002F02CF8002002F02E
:1052000029F8002002F032F8AA2002F023F8CF207B
:1052100002F02CF8002002F01DF8002002F01AF82D
:10522000002002F017F8002002F014F8002002F02D
:1052300011F8002002F00EF8002002F00BF8002018
:1052400002F008F8002002F005F8002002F002F851
:10525000002001F0FFFF002001F0FCFF002001F022
:10526000F9FF002001F0F6FF002001F0F3FF00201D
:1052700001F0F0FF002001F0EDFFF02001F0F6FF5B
:10528000002001F0E7FF502001F0E4FF002001F0D2
:10529000E1FF002001F0DEFF002001F0DBFFF32042
:1052A00001F0E4FF002001F0D5FFF92001F0DEFF5E
:1052B000062001F0CFFF102001F0CCFF292001F0E3
:1052C000C9FF002001F0C6FF3A2001F0CFFF5520B2
:1052D00001F0C0FF112001F0C9FF6420FEF7E0F8E3
:1052E000292001F0C3FF352001F0C0FF002001F0AC
:1052F000B1FF512001F0BAFFFF2001F0ABFF5320B6
:1053000001F0B4FF2C2001F0A5FF552001F0AEFF05
:10531000822001F09FFF2C2001F0A8FF10BD10B5E6
:1053200055214FF4704001F0B7FFAA214FF2010060
:1053300001F0B2FF52214FF2020001F0ADFF08214F
:105340004FF2030001F0A8FF01214FF2040001F029
:10535000A3FF0D214FF4304001F09EFF0D214BF2D1
:10536000010001F099FF0D214BF2020001F094FFC2
:1053700034214FF4364001F08FFF34214BF20160AD
:1053800001F08AFF34214BF2026001F085FF0D210C
:105390004FF4314001F080FF0D214BF2011001F07C
:1053A0007BFF0D214BF2021001F076FF34214FF408
:1053B000374001F071FF34214BF2017001F06CFFB6
:1053C00034214BF2027001F067FF00214FF43240AC
:1053D00001F062FF00214BF2012001F05DFF00218E
:1053E0004BF2022001F058FF24214FF4384001F025
:1053F00053FF24214BF6010001F04EFF24214BF610
:10540000020001F049FF01214FF43F4001F044FF49
:105410000F214FF4334001F03FFF0F214BF20130D9
:1054200001F03AFF0F214BF2023001F035FF342139
:105430004FF4394001F030FF34214BF6011001F0F8
:105440002BFF34214BF6021001F026FF08214FF408
:10545000354001F021FF08214BF2015001F01CFF03
:1054600008214BF2025001F017FF03214FF4424094
:1054700001F012FF24214FF43A4001F00DFF2421E6
:105480004BF6012001F008FF24214BF6022001F029
:1054900003FF00214FF43C4001F0FEFE78214BF663
:1054A000014001F0F9FE00214BF6024001F0F4FE4C
:1054B00000214FF43D4001F0EFFE78214BF6015002
:1054C00001F0EAFE00214BF6025001F0E5FE00215A
:1054D0004FF43E4001F0E0FE64214BF6016001F024
:1054E000DBFE00214FF4514001F0D6FE33214DF296
:1054F000011001F0D1FE00214DF2021001F0CCFEAE
:1055000034214DF2031001F0C7FE00214DF20410CA
:1055100001F0C2FE3A214DF2051001F0BDFE00215E
:105520004DF2061001F0B8FE4A214DF2071001F0CD
:10553000B3FE00214DF2081001F0AEFE5C214DF2E9
:10554000091001F0A9FE00214DF20A1001F0A4FE9D
:1055500081214DF20B1001F09FFE00214DF20C1045
:1055600001F09AFEA6214DF20D1001F095FE0021EA
:105570004DF20E1001F090FEE5214DF20F1001F0FA
:105580008BFE01214DF2101001F086FE13214DF229
:10559000111001F081FE01214DF2121001F07CFE8C
:1055A00054214DF2131001F077FE01214DF2141039
:1055B00001F072FE82214DF2151001F06DFE012105
:1055C0004DF2161001F068FECA214DF2171001F0DD
:1055D00063FE02214DF2181001F05EFE00214DF233
:1055E000191001F059FE02214DF21A1001F054FE7B
:1055F00001214DF21B1001F04FFE02214DF21C1053
:1056000001F04AFE34214DF21D1001F045FE022149
:105610004DF21E1001F040FE67214DF21F1001F007
:105620003BFE02214DF2201001F036FE84214DF2A6
:10563000211001F031FE02214DF2221001F02CFE6A
:10564000A4214DF2231001F027FE02214DF2241077
:1056500001F022FEB7214DF2251001F01DFE0221BE
:105660004DF2261001F018FECF214DF2271001F067
:1056700013FE02214DF2281001F00EFEDE214DF244
:10568000291001F009FE02214DF22A1001F004FE5A
:10569000F2214DF22B1001F0FFFD02214DF22C10F2
:1056A00001F0FAFDFE214DF22D1001F0F5FD032170
:1056B0004DF22E1001F0F0FD10214DF22F1001F0EF
:1056C000EBFD03214DF2301001F0E6FD33214DF2E8
:1056D000311001F0E1FD03214DF2321001F0DCFD4B
:1056E0006D214DF2331001F0D7FD00214FF45240EF
:1056F00001F0D2FD33214DF2012001F0CDFD00215A
:105700004DF2022001F0C8FD34214DF2032001F0DA
:10571000C3FD00214DF2042001F0BEFD3A214DF2FF
:10572000052001F0B9FD00214DF2062001F0B4FD85
:105730004A214DF2072001F0AFFD00214DF2082073
:1057400001F0AAFD5C214DF2092001F0A5FD002128
:105750004DF20A2001F0A0FD81214DF20B2001F055
:105760009BFD00214DF20C2001F096FDA6214DF28B
:105770000D2001F091FD00214DF20E2001F08CFD75
:10578000E5214DF20F2001F087FD01214DF210209F
:1057900001F082FD13214DF2112001F07DFD012168
:1057A0004DF2122001F078FD54214DF2132001F04A
:1057B00073FD01214DF2142001F06EFD82214DF2A6
:1057C000152001F069FD01214DF2162001F064FD64
:1057D000CA214DF2172001F05FFD02214DF2182081
:1057E00001F05AFD00214DF2192001F055FD022172
:1057F0004DF21A2001F050FD01214DF21B2001F065
:105800004BFD02214DF21C2001F046FD34214DF2EA
:105810001D2001F041FD02214DF21E2001F03CFD52
:1058200067214DF21F2001F037FD02214DF22020AB
:1058300001F032FD84214DF2212001F02DFD0221E5
:105840004DF2222001F028FDA4214DF2232001F089
:1058500023FD02214DF2242001F01EFDB7214DF25F
:10586000252001F019FD02214DF2262001F014FD42
:10587000CF214DF2272001F00FFD02214DF228200B
:1058800001F00AFDDE214DF2292001F005FD022183
:105890004DF22A2001F000FDF2214DF22B2001F003
:1058A000FBFC02214DF22C2001F0F6FCFE214DF212
:1058B0002D2001F0F1FC03214DF22E2001F0ECFC33
:1058C00010214DF22F2001F0E7FC03214DF2302092
:1058D00001F0E2FC33214DF2312001F0DDFC032127
:1058E0004DF2322001F0D8FC6D214DF2332001F051
:1058F000D3FC00214FF4534001F0CEFC33214DF294
:10590000013001F0C9FC00214DF2023001F0C4FC6D
:1059100034214DF2033001F0BFFC00214DF2043080
:1059200001F0BAFC3A214DF2053001F0B5FC00213E
:105930004DF2063001F0B0FC4A214DF2073001F083
:10594000ABFC00214DF2083001F0A6FC5C214DF2C9
:10595000093001F0A1FC00214DF20A3001F09CFC5D
:1059600081214DF20B3001F097FC00214DF20C30FB
:1059700001F092FCA6214DF20D3001F08DFC0021CA
:105980004DF20E3001F088FCE5214DF20F3001F0B0
:1059900083FC01214DF2103001F07EFC13214DF209
:1059A000113001F079FC01214DF2123001F074FC4C
:1059B00054214DF2133001F06FFC01214DF21430EF
:1059C00001F06AFC82214DF2153001F065FC0121E5
:1059D0004DF2163001F060FCCA214DF2173001F093
:1059E0005BFC02214DF2183001F056FC00214DF213
:1059F000193001F051FC02214DF21A3001F04CFC3B
:105A000001214DF21B3001F047FC02214DF21C3008
:105A100001F042FC34214DF21D3001F03DFC022129
:105A20004DF21E3001F038FC67214DF21F3001F0BD
:105A300033FC02214DF2203001F02EFC84214DF286
:105A4000213001F029FC02214DF2223001F024FC2A
:105A5000A4214DF2233001F01FFC02214DF224302D
:105A600001F01AFCB7214DF2253001F015FC02219E
:105A70004DF2263001F010FCCF214DF2273001F01D
:105A80000BFC02214DF2283001F006FCDE214DF224
:105A9000293001F001FC02214DF22A3001F0FCFB1B
:105AA000F2214DF22B3001F0F7FB02214DF22C30A8
:105AB00001F0F2FBFE214DF22D3001F0EDFB032150
:105AC0004DF22E3001F0E8FB10214DF22F3001F0A5
:105AD000E3FB03214DF2303001F0DEFB33214DF2C8
